{
  "abi": [
    {
      "type": "constructor",
      "inputs": [
        {
          "name": "initialAdmin",
          "type": "address",
          "internalType": "address"
        },
        {
          "name": "initialNFTDescriptor",
          "type": "address",
          "internalType": "contract IFlowNFTDescriptor"
        }
      ],
      "stateMutability": "nonpayable"
    },
    {
      "type": "function",
      "name": "MAX_FEE",
      "inputs": [],
      "outputs": [
        {
          "name": "",
          "type": "uint256",
          "internalType": "UD60x18"
        }
      ],
      "stateMutability": "view"
    },
    {
      "type": "function",
      "name": "adjustRatePerSecond",
      "inputs": [
        {
          "name": "streamId",
          "type": "uint256",
          "internalType": "uint256"
        },
        {
          "name": "newRatePerSecond",
          "type": "uint128",
          "internalType": "UD21x18"
        }
      ],
      "outputs": [],
      "stateMutability": "nonpayable"
    },
    {
      "type": "function",
      "name": "admin",
      "inputs": [],
      "outputs": [
        {
          "name": "",
          "type": "address",
          "internalType": "address"
        }
      ],
      "stateMutability": "view"
    },
    {
      "type": "function",
      "name": "aggregateBalance",
      "inputs": [
        {
          "name": "token",
          "type": "address",
          "internalType": "contract IERC20"
        }
      ],
      "outputs": [
        {
          "name": "amount",
          "type": "uint256",
          "internalType": "uint256"
        }
      ],
      "stateMutability": "view"
    },
    {
      "type": "function",
      "name": "approve",
      "inputs": [
        {
          "name": "to",
          "type": "address",
          "internalType": "address"
        },
        {
          "name": "tokenId",
          "type": "uint256",
          "internalType": "uint256"
        }
      ],
      "outputs": [],
      "stateMutability": "nonpayable"
    },
    {
      "type": "function",
      "name": "balanceOf",
      "inputs": [
        {
          "name": "owner",
          "type": "address",
          "internalType": "address"
        }
      ],
      "outputs": [
        {
          "name": "",
          "type": "uint256",
          "internalType": "uint256"
        }
      ],
      "stateMutability": "view"
    },
    {
      "type": "function",
      "name": "batch",
      "inputs": [
        {
          "name": "calls",
          "type": "bytes[]",
          "internalType": "bytes[]"
        }
      ],
      "outputs": [],
      "stateMutability": "nonpayable"
    },
    {
      "type": "function",
      "name": "collectProtocolRevenue",
      "inputs": [
        {
          "name": "token",
          "type": "address",
          "internalType": "contract IERC20"
        },
        {
          "name": "to",
          "type": "address",
          "internalType": "address"
        }
      ],
      "outputs": [],
      "stateMutability": "nonpayable"
    },
    {
      "type": "function",
      "name": "coveredDebtOf",
      "inputs": [
        {
          "name": "streamId",
          "type": "uint256",
          "internalType": "uint256"
        }
      ],
      "outputs": [
        {
          "name": "coveredDebt",
          "type": "uint128",
          "internalType": "uint128"
        }
      ],
      "stateMutability": "view"
    },
    {
      "type": "function",
      "name": "create",
      "inputs": [
        {
          "name": "sender",
          "type": "address",
          "internalType": "address"
        },
        {
          "name": "recipient",
          "type": "address",
          "internalType": "address"
        },
        {
          "name": "ratePerSecond",
          "type": "uint128",
          "internalType": "UD21x18"
        },
        {
          "name": "token",
          "type": "address",
          "internalType": "contract IERC20"
        },
        {
          "name": "transferable",
          "type": "bool",
          "internalType": "bool"
        }
      ],
      "outputs": [
        {
          "name": "streamId",
          "type": "uint256",
          "internalType": "uint256"
        }
      ],
      "stateMutability": "nonpayable"
    },
    {
      "type": "function",
      "name": "createAndDeposit",
      "inputs": [
        {
          "name": "sender",
          "type": "address",
          "internalType": "address"
        },
        {
          "name": "recipient",
          "type": "address",
          "internalType": "address"
        },
        {
          "name": "ratePerSecond",
          "type": "uint128",
          "internalType": "UD21x18"
        },
        {
          "name": "token",
          "type": "address",
          "internalType": "contract IERC20"
        },
        {
          "name": "transferable",
          "type": "bool",
          "internalType": "bool"
        },
        {
          "name": "amount",
          "type": "uint128",
          "internalType": "uint128"
        }
      ],
      "outputs": [
        {
          "name": "streamId",
          "type": "uint256",
          "internalType": "uint256"
        }
      ],
      "stateMutability": "nonpayable"
    },
    {
      "type": "function",
      "name": "depletionTimeOf",
      "inputs": [
        {
          "name": "streamId",
          "type": "uint256",
          "internalType": "uint256"
        }
      ],
      "outputs": [
        {
          "name": "depletionTime",
          "type": "uint256",
          "internalType": "uint256"
        }
      ],
      "stateMutability": "view"
    },
    {
      "type": "function",
      "name": "deposit",
      "inputs": [
        {
          "name": "streamId",
          "type": "uint256",
          "internalType": "uint256"
        },
        {
          "name": "amount",
          "type": "uint128",
          "internalType": "uint128"
        },
        {
          "name": "sender",
          "type": "address",
          "internalType": "address"
        },
        {
          "name": "recipient",
          "type": "address",
          "internalType": "address"
        }
      ],
      "outputs": [],
      "stateMutability": "nonpayable"
    },
    {
      "type": "function",
      "name": "depositAndPause",
      "inputs": [
        {
          "name": "streamId",
          "type": "uint256",
          "internalType": "uint256"
        },
        {
          "name": "amount",
          "type": "uint128",
          "internalType": "uint128"
        }
      ],
      "outputs": [],
      "stateMutability": "nonpayable"
    },
    {
      "type": "function",
      "name": "depositViaBroker",
      "inputs": [
        {
          "name": "streamId",
          "type": "uint256",
          "internalType": "uint256"
        },
        {
          "name": "totalAmount",
          "type": "uint128",
          "internalType": "uint128"
        },
        {
          "name": "sender",
          "type": "address",
          "internalType": "address"
        },
        {
          "name": "recipient",
          "type": "address",
          "internalType": "address"
        },
        {
          "name": "broker",
          "type": "tuple",
          "internalType": "struct Broker",
          "components": [
            {
              "name": "account",
              "type": "address",
              "internalType": "address"
            },
            {
              "name": "fee",
              "type": "uint256",
              "internalType": "UD60x18"
            }
          ]
        }
      ],
      "outputs": [],
      "stateMutability": "nonpayable"
    },
    {
      "type": "function",
      "name": "getApproved",
      "inputs": [
        {
          "name": "tokenId",
          "type": "uint256",
          "internalType": "uint256"
        }
      ],
      "outputs": [
        {
          "name": "",
          "type": "address",
          "internalType": "address"
        }
      ],
      "stateMutability": "view"
    },
    {
      "type": "function",
      "name": "getBalance",
      "inputs": [
        {
          "name": "streamId",
          "type": "uint256",
          "internalType": "uint256"
        }
      ],
      "outputs": [
        {
          "name": "balance",
          "type": "uint128",
          "internalType": "uint128"
        }
      ],
      "stateMutability": "view"
    },
    {
      "type": "function",
      "name": "getRatePerSecond",
      "inputs": [
        {
          "name": "streamId",
          "type": "uint256",
          "internalType": "uint256"
        }
      ],
      "outputs": [
        {
          "name": "ratePerSecond",
          "type": "uint128",
          "internalType": "UD21x18"
        }
      ],
      "stateMutability": "view"
    },
    {
      "type": "function",
      "name": "getRecipient",
      "inputs": [
        {
          "name": "streamId",
          "type": "uint256",
          "internalType": "uint256"
        }
      ],
      "outputs": [
        {
          "name": "recipient",
          "type": "address",
          "internalType": "address"
        }
      ],
      "stateMutability": "view"
    },
    {
      "type": "function",
      "name": "getSender",
      "inputs": [
        {
          "name": "streamId",
          "type": "uint256",
          "internalType": "uint256"
        }
      ],
      "outputs": [
        {
          "name": "sender",
          "type": "address",
          "internalType": "address"
        }
      ],
      "stateMutability": "view"
    },
    {
      "type": "function",
      "name": "getSnapshotDebtScaled",
      "inputs": [
        {
          "name": "streamId",
          "type": "uint256",
          "internalType": "uint256"
        }
      ],
      "outputs": [
        {
          "name": "snapshotDebtScaled",
          "type": "uint256",
          "internalType": "uint256"
        }
      ],
      "stateMutability": "view"
    },
    {
      "type": "function",
      "name": "getSnapshotTime",
      "inputs": [
        {
          "name": "streamId",
          "type": "uint256",
          "internalType": "uint256"
        }
      ],
      "outputs": [
        {
          "name": "snapshotTime",
          "type": "uint40",
          "internalType": "uint40"
        }
      ],
      "stateMutability": "view"
    },
    {
      "type": "function",
      "name": "getStream",
      "inputs": [
        {
          "name": "streamId",
          "type": "uint256",
          "internalType": "uint256"
        }
      ],
      "outputs": [
        {
          "name": "stream",
          "type": "tuple",
          "internalType": "struct Flow.Stream",
          "components": [
            {
              "name": "balance",
              "type": "uint128",
              "internalType": "uint128"
            },
            {
              "name": "ratePerSecond",
              "type": "uint128",
              "internalType": "UD21x18"
            },
            {
              "name": "sender",
              "type": "address",
              "internalType": "address"
            },
            {
              "name": "snapshotTime",
              "type": "uint40",
              "internalType": "uint40"
            },
            {
              "name": "isStream",
              "type": "bool",
              "internalType": "bool"
            },
            {
              "name": "isTransferable",
              "type": "bool",
              "internalType": "bool"
            },
            {
              "name": "isVoided",
              "type": "bool",
              "internalType": "bool"
            },
            {
              "name": "token",
              "type": "address",
              "internalType": "contract IERC20"
            },
            {
              "name": "tokenDecimals",
              "type": "uint8",
              "internalType": "uint8"
            },
            {
              "name": "snapshotDebtScaled",
              "type": "uint256",
              "internalType": "uint256"
            }
          ]
        }
      ],
      "stateMutability": "view"
    },
    {
      "type": "function",
      "name": "getStreamsBySender",
      "inputs": [
        {
          "name": "sender",
          "type": "address",
          "internalType": "address"
        }
      ],
      "outputs": [
        {
          "name": "streamIds",
          "type": "uint256[]",
          "internalType": "uint256[]"
        }
      ],
      "stateMutability": "view"
    },
    {
      "type": "function",
      "name": "getToken",
      "inputs": [
        {
          "name": "streamId",
          "type": "uint256",
          "internalType": "uint256"
        }
      ],
      "outputs": [
        {
          "name": "token",
          "type": "address",
          "internalType": "contract IERC20"
        }
      ],
      "stateMutability": "view"
    },
    {
      "type": "function",
      "name": "getTokenDecimals",
      "inputs": [
        {
          "name": "streamId",
          "type": "uint256",
          "internalType": "uint256"
        }
      ],
      "outputs": [
        {
          "name": "tokenDecimals",
          "type": "uint8",
          "internalType": "uint8"
        }
      ],
      "stateMutability": "view"
    },
    {
      "type": "function",
      "name": "isApprovedForAll",
      "inputs": [
        {
          "name": "owner",
          "type": "address",
          "internalType": "address"
        },
        {
          "name": "operator",
          "type": "address",
          "internalType": "address"
        }
      ],
      "outputs": [
        {
          "name": "",
          "type": "bool",
          "internalType": "bool"
        }
      ],
      "stateMutability": "view"
    },
    {
      "type": "function",
      "name": "isPaused",
      "inputs": [
        {
          "name": "streamId",
          "type": "uint256",
          "internalType": "uint256"
        }
      ],
      "outputs": [
        {
          "name": "result",
          "type": "bool",
          "internalType": "bool"
        }
      ],
      "stateMutability": "view"
    },
    {
      "type": "function",
      "name": "isStream",
      "inputs": [
        {
          "name": "streamId",
          "type": "uint256",
          "internalType": "uint256"
        }
      ],
      "outputs": [
        {
          "name": "result",
          "type": "bool",
          "internalType": "bool"
        }
      ],
      "stateMutability": "view"
    },
    {
      "type": "function",
      "name": "isTransferable",
      "inputs": [
        {
          "name": "streamId",
          "type": "uint256",
          "internalType": "uint256"
        }
      ],
      "outputs": [
        {
          "name": "result",
          "type": "bool",
          "internalType": "bool"
        }
      ],
      "stateMutability": "view"
    },
    {
      "type": "function",
      "name": "isVoided",
      "inputs": [
        {
          "name": "streamId",
          "type": "uint256",
          "internalType": "uint256"
        }
      ],
      "outputs": [
        {
          "name": "result",
          "type": "bool",
          "internalType": "bool"
        }
      ],
      "stateMutability": "view"
    },
    {
      "type": "function",
      "name": "name",
      "inputs": [],
      "outputs": [
        {
          "name": "",
          "type": "string",
          "internalType": "string"
        }
      ],
      "stateMutability": "view"
    },
    {
      "type": "function",
      "name": "nextStreamId",
      "inputs": [],
      "outputs": [
        {
          "name": "",
          "type": "uint256",
          "internalType": "uint256"
        }
      ],
      "stateMutability": "view"
    },
    {
      "type": "function",
      "name": "nftDescriptor",
      "inputs": [],
      "outputs": [
        {
          "name": "",
          "type": "address",
          "internalType": "contract IFlowNFTDescriptor"
        }
      ],
      "stateMutability": "view"
    },
    {
      "type": "function",
      "name": "ongoingDebtScaledOf",
      "inputs": [
        {
          "name": "streamId",
          "type": "uint256",
          "internalType": "uint256"
        }
      ],
      "outputs": [
        {
          "name": "ongoingDebtScaled",
          "type": "uint256",
          "internalType": "uint256"
        }
      ],
      "stateMutability": "view"
    },
    {
      "type": "function",
      "name": "ownerOf",
      "inputs": [
        {
          "name": "tokenId",
          "type": "uint256",
          "internalType": "uint256"
        }
      ],
      "outputs": [
        {
          "name": "",
          "type": "address",
          "internalType": "address"
        }
      ],
      "stateMutability": "view"
    },
    {
      "type": "function",
      "name": "pause",
      "inputs": [
        {
          "name": "streamId",
          "type": "uint256",
          "internalType": "uint256"
        }
      ],
      "outputs": [],
      "stateMutability": "nonpayable"
    },
    {
      "type": "function",
      "name": "protocolFee",
      "inputs": [
        {
          "name": "token",
          "type": "address",
          "internalType": "contract IERC20"
        }
      ],
      "outputs": [
        {
          "name": "fee",
          "type": "uint256",
          "internalType": "UD60x18"
        }
      ],
      "stateMutability": "view"
    },
    {
      "type": "function",
      "name": "protocolRevenue",
      "inputs": [
        {
          "name": "token",
          "type": "address",
          "internalType": "contract IERC20"
        }
      ],
      "outputs": [
        {
          "name": "revenue",
          "type": "uint128",
          "internalType": "uint128"
        }
      ],
      "stateMutability": "view"
    },
    {
      "type": "function",
      "name": "recover",
      "inputs": [
        {
          "name": "token",
          "type": "address",
          "internalType": "contract IERC20"
        },
        {
          "name": "to",
          "type": "address",
          "internalType": "address"
        }
      ],
      "outputs": [],
      "stateMutability": "nonpayable"
    },
    {
      "type": "function",
      "name": "refund",
      "inputs": [
        {
          "name": "streamId",
          "type": "uint256",
          "internalType": "uint256"
        },
        {
          "name": "amount",
          "type": "uint128",
          "internalType": "uint128"
        }
      ],
      "outputs": [],
      "stateMutability": "nonpayable"
    },
    {
      "type": "function",
      "name": "refundAndPause",
      "inputs": [
        {
          "name": "streamId",
          "type": "uint256",
          "internalType": "uint256"
        },
        {
          "name": "amount",
          "type": "uint128",
          "internalType": "uint128"
        }
      ],
      "outputs": [],
      "stateMutability": "nonpayable"
    },
    {
      "type": "function",
      "name": "refundableAmountOf",
      "inputs": [
        {
          "name": "streamId",
          "type": "uint256",
          "internalType": "uint256"
        }
      ],
      "outputs": [
        {
          "name": "refundableAmount",
          "type": "uint128",
          "internalType": "uint128"
        }
      ],
      "stateMutability": "view"
    },
    {
      "type": "function",
      "name": "restart",
      "inputs": [
        {
          "name": "streamId",
          "type": "uint256",
          "internalType": "uint256"
        },
        {
          "name": "ratePerSecond",
          "type": "uint128",
          "internalType": "UD21x18"
        }
      ],
      "outputs": [],
      "stateMutability": "nonpayable"
    },
    {
      "type": "function",
      "name": "restartAndDeposit",
      "inputs": [
        {
          "name": "streamId",
          "type": "uint256",
          "internalType": "uint256"
        },
        {
          "name": "ratePerSecond",
          "type": "uint128",
          "internalType": "UD21x18"
        },
        {
          "name": "amount",
          "type": "uint128",
          "internalType": "uint128"
        }
      ],
      "outputs": [],
      "stateMutability": "nonpayable"
    },
    {
      "type": "function",
      "name": "safeTransferFrom",
      "inputs": [
        {
          "name": "from",
          "type": "address",
          "internalType": "address"
        },
        {
          "name": "to",
          "type": "address",
          "internalType": "address"
        },
        {
          "name": "tokenId",
          "type": "uint256",
          "internalType": "uint256"
        }
      ],
      "outputs": [],
      "stateMutability": "nonpayable"
    },
    {
      "type": "function",
      "name": "safeTransferFrom",
      "inputs": [
        {
          "name": "from",
          "type": "address",
          "internalType": "address"
        },
        {
          "name": "to",
          "type": "address",
          "internalType": "address"
        },
        {
          "name": "tokenId",
          "type": "uint256",
          "internalType": "uint256"
        },
        {
          "name": "data",
          "type": "bytes",
          "internalType": "bytes"
        }
      ],
      "outputs": [],
      "stateMutability": "nonpayable"
    },
    {
      "type": "function",
      "name": "senderToStreamId",
      "inputs": [
        {
          "name": "sender",
          "type": "address",
          "internalType": "address"
        },
        {
          "name": "",
          "type": "uint256",
          "internalType": "uint256"
        }
      ],
      "outputs": [
        {
          "name": "streamIds",
          "type": "uint256",
          "internalType": "uint256"
        }
      ],
      "stateMutability": "view"
    },
    {
      "type": "function",
      "name": "setApprovalForAll",
      "inputs": [
        {
          "name": "operator",
          "type": "address",
          "internalType": "address"
        },
        {
          "name": "approved",
          "type": "bool",
          "internalType": "bool"
        }
      ],
      "outputs": [],
      "stateMutability": "nonpayable"
    },
    {
      "type": "function",
      "name": "setNFTDescriptor",
      "inputs": [
        {
          "name": "newNFTDescriptor",
          "type": "address",
          "internalType": "contract IFlowNFTDescriptor"
        }
      ],
      "outputs": [],
      "stateMutability": "nonpayable"
    },
    {
      "type": "function",
      "name": "setProtocolFee",
      "inputs": [
        {
          "name": "token",
          "type": "address",
          "internalType": "contract IERC20"
        },
        {
          "name": "newProtocolFee",
          "type": "uint256",
          "internalType": "UD60x18"
        }
      ],
      "outputs": [],
      "stateMutability": "nonpayable"
    },
    {
      "type": "function",
      "name": "statusOf",
      "inputs": [
        {
          "name": "streamId",
          "type": "uint256",
          "internalType": "uint256"
        }
      ],
      "outputs": [
        {
          "name": "status",
          "type": "uint8",
          "internalType": "enum Flow.Status"
        }
      ],
      "stateMutability": "view"
    },
    {
      "type": "function",
      "name": "supportsInterface",
      "inputs": [
        {
          "name": "interfaceId",
          "type": "bytes4",
          "internalType": "bytes4"
        }
      ],
      "outputs": [
        {
          "name": "",
          "type": "bool",
          "internalType": "bool"
        }
      ],
      "stateMutability": "view"
    },
    {
      "type": "function",
      "name": "symbol",
      "inputs": [],
      "outputs": [
        {
          "name": "",
          "type": "string",
          "internalType": "string"
        }
      ],
      "stateMutability": "view"
    },
    {
      "type": "function",
      "name": "tokenURI",
      "inputs": [
        {
          "name": "streamId",
          "type": "uint256",
          "internalType": "uint256"
        }
      ],
      "outputs": [
        {
          "name": "uri",
          "type": "string",
          "internalType": "string"
        }
      ],
      "stateMutability": "view"
    },
    {
      "type": "function",
      "name": "totalDebtOf",
      "inputs": [
        {
          "name": "streamId",
          "type": "uint256",
          "internalType": "uint256"
        }
      ],
      "outputs": [
        {
          "name": "totalDebt",
          "type": "uint256",
          "internalType": "uint256"
        }
      ],
      "stateMutability": "view"
    },
    {
      "type": "function",
      "name": "transferAdmin",
      "inputs": [
        {
          "name": "newAdmin",
          "type": "address",
          "internalType": "address"
        }
      ],
      "outputs": [],
      "stateMutability": "nonpayable"
    },
    {
      "type": "function",
      "name": "transferFrom",
      "inputs": [
        {
          "name": "from",
          "type": "address",
          "internalType": "address"
        },
        {
          "name": "to",
          "type": "address",
          "internalType": "address"
        },
        {
          "name": "tokenId",
          "type": "uint256",
          "internalType": "uint256"
        }
      ],
      "outputs": [],
      "stateMutability": "nonpayable"
    },
    {
      "type": "function",
      "name": "uncoveredDebtOf",
      "inputs": [
        {
          "name": "streamId",
          "type": "uint256",
          "internalType": "uint256"
        }
      ],
      "outputs": [
        {
          "name": "uncoveredDebt",
          "type": "uint256",
          "internalType": "uint256"
        }
      ],
      "stateMutability": "view"
    },
    {
      "type": "function",
      "name": "void",
      "inputs": [
        {
          "name": "streamId",
          "type": "uint256",
          "internalType": "uint256"
        }
      ],
      "outputs": [],
      "stateMutability": "nonpayable"
    },
    {
      "type": "function",
      "name": "withdraw",
      "inputs": [
        {
          "name": "streamId",
          "type": "uint256",
          "internalType": "uint256"
        },
        {
          "name": "to",
          "type": "address",
          "internalType": "address"
        },
        {
          "name": "amount",
          "type": "uint128",
          "internalType": "uint128"
        }
      ],
      "outputs": [
        {
          "name": "withdrawnAmount",
          "type": "uint128",
          "internalType": "uint128"
        },
        {
          "name": "protocolFeeAmount",
          "type": "uint128",
          "internalType": "uint128"
        }
      ],
      "stateMutability": "nonpayable"
    },
    {
      "type": "function",
      "name": "withdrawMax",
      "inputs": [
        {
          "name": "streamId",
          "type": "uint256",
          "internalType": "uint256"
        },
        {
          "name": "to",
          "type": "address",
          "internalType": "address"
        }
      ],
      "outputs": [
        {
          "name": "withdrawnAmount",
          "type": "uint128",
          "internalType": "uint128"
        },
        {
          "name": "protocolFeeAmount",
          "type": "uint128",
          "internalType": "uint128"
        }
      ],
      "stateMutability": "nonpayable"
    },
    {
      "type": "function",
      "name": "withdrawableAmountOf",
      "inputs": [
        {
          "name": "streamId",
          "type": "uint256",
          "internalType": "uint256"
        }
      ],
      "outputs": [
        {
          "name": "withdrawableAmount",
          "type": "uint128",
          "internalType": "uint128"
        }
      ],
      "stateMutability": "view"
    },
    {
      "type": "event",
      "name": "AdjustFlowStream",
      "inputs": [
        {
          "name": "streamId",
          "type": "uint256",
          "indexed": true,
          "internalType": "uint256"
        },
        {
          "name": "totalDebt",
          "type": "uint256",
          "indexed": false,
          "internalType": "uint256"
        },
        {
          "name": "oldRatePerSecond",
          "type": "uint128",
          "indexed": false,
          "internalType": "UD21x18"
        },
        {
          "name": "newRatePerSecond",
          "type": "uint128",
          "indexed": false,
          "internalType": "UD21x18"
        }
      ],
      "anonymous": false
    },
    {
      "type": "event",
      "name": "Approval",
      "inputs": [
        {
          "name": "owner",
          "type": "address",
          "indexed": true,
          "internalType": "address"
        },
        {
          "name": "approved",
          "type": "address",
          "indexed": true,
          "internalType": "address"
        },
        {
          "name": "tokenId",
          "type": "uint256",
          "indexed": true,
          "internalType": "uint256"
        }
      ],
      "anonymous": false
    },
    {
      "type": "event",
      "name": "ApprovalForAll",
      "inputs": [
        {
          "name": "owner",
          "type": "address",
          "indexed": true,
          "internalType": "address"
        },
        {
          "name": "operator",
          "type": "address",
          "indexed": true,
          "internalType": "address"
        },
        {
          "name": "approved",
          "type": "bool",
          "indexed": false,
          "internalType": "bool"
        }
      ],
      "anonymous": false
    },
    {
      "type": "event",
      "name": "BatchMetadataUpdate",
      "inputs": [
        {
          "name": "_fromTokenId",
          "type": "uint256",
          "indexed": false,
          "internalType": "uint256"
        },
        {
          "name": "_toTokenId",
          "type": "uint256",
          "indexed": false,
          "internalType": "uint256"
        }
      ],
      "anonymous": false
    },
    {
      "type": "event",
      "name": "CollectProtocolRevenue",
      "inputs": [
        {
          "name": "admin",
          "type": "address",
          "indexed": true,
          "internalType": "address"
        },
        {
          "name": "token",
          "type": "address",
          "indexed": true,
          "internalType": "contract IERC20"
        },
        {
          "name": "to",
          "type": "address",
          "indexed": false,
          "internalType": "address"
        },
        {
          "name": "revenue",
          "type": "uint128",
          "indexed": false,
          "internalType": "uint128"
        }
      ],
      "anonymous": false
    },
    {
      "type": "event",
      "name": "CreateFlowStream",
      "inputs": [
        {
          "name": "streamId",
          "type": "uint256",
          "indexed": false,
          "internalType": "uint256"
        },
        {
          "name": "sender",
          "type": "address",
          "indexed": true,
          "internalType": "address"
        },
        {
          "name": "recipient",
          "type": "address",
          "indexed": true,
          "internalType": "address"
        },
        {
          "name": "ratePerSecond",
          "type": "uint128",
          "indexed": false,
          "internalType": "UD21x18"
        },
        {
          "name": "token",
          "type": "address",
          "indexed": true,
          "internalType": "contract IERC20"
        },
        {
          "name": "transferable",
          "type": "bool",
          "indexed": false,
          "internalType": "bool"
        }
      ],
      "anonymous": false
    },
    {
      "type": "event",
      "name": "DepositFlowStream",
      "inputs": [
        {
          "name": "streamId",
          "type": "uint256",
          "indexed": true,
          "internalType": "uint256"
        },
        {
          "name": "funder",
          "type": "address",
          "indexed": true,
          "internalType": "address"
        },
        {
          "name": "amount",
          "type": "uint128",
          "indexed": false,
          "internalType": "uint128"
        }
      ],
      "anonymous": false
    },
    {
      "type": "event",
      "name": "MetadataUpdate",
      "inputs": [
        {
          "name": "_tokenId",
          "type": "uint256",
          "indexed": false,
          "internalType": "uint256"
        }
      ],
      "anonymous": false
    },
    {
      "type": "event",
      "name": "PauseFlowStream",
      "inputs": [
        {
          "name": "streamId",
          "type": "uint256",
          "indexed": true,
          "internalType": "uint256"
        },
        {
          "name": "sender",
          "type": "address",
          "indexed": true,
          "internalType": "address"
        },
        {
          "name": "recipient",
          "type": "address",
          "indexed": true,
          "internalType": "address"
        },
        {
          "name": "totalDebt",
          "type": "uint256",
          "indexed": false,
          "internalType": "uint256"
        }
      ],
      "anonymous": false
    },
    {
      "type": "event",
      "name": "Recover",
      "inputs": [
        {
          "name": "admin",
          "type": "address",
          "indexed": true,
          "internalType": "address"
        },
        {
          "name": "token",
          "type": "address",
          "indexed": true,
          "internalType": "contract IERC20"
        },
        {
          "name": "to",
          "type": "address",
          "indexed": false,
          "internalType": "address"
        },
        {
          "name": "surplus",
          "type": "uint256",
          "indexed": false,
          "internalType": "uint256"
        }
      ],
      "anonymous": false
    },
    {
      "type": "event",
      "name": "RefundFromFlowStream",
      "inputs": [
        {
          "name": "streamId",
          "type": "uint256",
          "indexed": true,
          "internalType": "uint256"
        },
        {
          "name": "sender",
          "type": "address",
          "indexed": true,
          "internalType": "address"
        },
        {
          "name": "amount",
          "type": "uint128",
          "indexed": false,
          "internalType": "uint128"
        }
      ],
      "anonymous": false
    },
    {
      "type": "event",
      "name": "RestartFlowStream",
      "inputs": [
        {
          "name": "streamId",
          "type": "uint256",
          "indexed": true,
          "internalType": "uint256"
        },
        {
          "name": "sender",
          "type": "address",
          "indexed": true,
          "internalType": "address"
        },
        {
          "name": "ratePerSecond",
          "type": "uint128",
          "indexed": false,
          "internalType": "UD21x18"
        }
      ],
      "anonymous": false
    },
    {
      "type": "event",
      "name": "SetNFTDescriptor",
      "inputs": [
        {
          "name": "admin",
          "type": "address",
          "indexed": true,
          "internalType": "address"
        },
        {
          "name": "oldNFTDescriptor",
          "type": "address",
          "indexed": false,
          "internalType": "contract IFlowNFTDescriptor"
        },
        {
          "name": "newNFTDescriptor",
          "type": "address",
          "indexed": false,
          "internalType": "contract IFlowNFTDescriptor"
        }
      ],
      "anonymous": false
    },
    {
      "type": "event",
      "name": "SetProtocolFee",
      "inputs": [
        {
          "name": "admin",
          "type": "address",
          "indexed": true,
          "internalType": "address"
        },
        {
          "name": "token",
          "type": "address",
          "indexed": true,
          "internalType": "contract IERC20"
        },
        {
          "name": "oldProtocolFee",
          "type": "uint256",
          "indexed": false,
          "internalType": "UD60x18"
        },
        {
          "name": "newProtocolFee",
          "type": "uint256",
          "indexed": false,
          "internalType": "UD60x18"
        }
      ],
      "anonymous": false
    },
    {
      "type": "event",
      "name": "Transfer",
      "inputs": [
        {
          "name": "from",
          "type": "address",
          "indexed": true,
          "internalType": "address"
        },
        {
          "name": "to",
          "type": "address",
          "indexed": true,
          "internalType": "address"
        },
        {
          "name": "tokenId",
          "type": "uint256",
          "indexed": true,
          "internalType": "uint256"
        }
      ],
      "anonymous": false
    },
    {
      "type": "event",
      "name": "TransferAdmin",
      "inputs": [
        {
          "name": "oldAdmin",
          "type": "address",
          "indexed": true,
          "internalType": "address"
        },
        {
          "name": "newAdmin",
          "type": "address",
          "indexed": true,
          "internalType": "address"
        }
      ],
      "anonymous": false
    },
    {
      "type": "event",
      "name": "VoidFlowStream",
      "inputs": [
        {
          "name": "streamId",
          "type": "uint256",
          "indexed": true,
          "internalType": "uint256"
        },
        {
          "name": "sender",
          "type": "address",
          "indexed": true,
          "internalType": "address"
        },
        {
          "name": "recipient",
          "type": "address",
          "indexed": true,
          "internalType": "address"
        },
        {
          "name": "caller",
          "type": "address",
          "indexed": false,
          "internalType": "address"
        },
        {
          "name": "newTotalDebt",
          "type": "uint256",
          "indexed": false,
          "internalType": "uint256"
        },
        {
          "name": "writtenOffDebt",
          "type": "uint256",
          "indexed": false,
          "internalType": "uint256"
        }
      ],
      "anonymous": false
    },
    {
      "type": "event",
      "name": "WithdrawFromFlowStream",
      "inputs": [
        {
          "name": "streamId",
          "type": "uint256",
          "indexed": true,
          "internalType": "uint256"
        },
        {
          "name": "to",
          "type": "address",
          "indexed": true,
          "internalType": "address"
        },
        {
          "name": "token",
          "type": "address",
          "indexed": true,
          "internalType": "contract IERC20"
        },
        {
          "name": "caller",
          "type": "address",
          "indexed": false,
          "internalType": "address"
        },
        {
          "name": "withdrawAmount",
          "type": "uint128",
          "indexed": false,
          "internalType": "uint128"
        },
        {
          "name": "protocolFeeAmount",
          "type": "uint128",
          "indexed": false,
          "internalType": "uint128"
        }
      ],
      "anonymous": false
    },
    {
      "type": "error",
      "name": "AddressEmptyCode",
      "inputs": [
        {
          "name": "target",
          "type": "address",
          "internalType": "address"
        }
      ]
    },
    {
      "type": "error",
      "name": "AddressInsufficientBalance",
      "inputs": [
        {
          "name": "account",
          "type": "address",
          "internalType": "address"
        }
      ]
    },
    {
      "type": "error",
      "name": "BatchError",
      "inputs": [
        {
          "name": "errorData",
          "type": "bytes",
          "internalType": "bytes"
        }
      ]
    },
    {
      "type": "error",
      "name": "CallerNotAdmin",
      "inputs": [
        {
          "name": "admin",
          "type": "address",
          "internalType": "address"
        },
        {
          "name": "caller",
          "type": "address",
          "internalType": "address"
        }
      ]
    },
    {
      "type": "error",
      "name": "DebtStreamBase_NoProtocolRevenue",
      "inputs": [
        {
          "name": "token",
          "type": "address",
          "internalType": "address"
        }
      ]
    },
    {
      "type": "error",
      "name": "DebtStreamBase_NotTransferable",
      "inputs": [
        {
          "name": "streamId",
          "type": "uint256",
          "internalType": "uint256"
        }
      ]
    },
    {
      "type": "error",
      "name": "DebtStreamBase_ProtocolFeeTooHigh",
      "inputs": [
        {
          "name": "newProtocolFee",
          "type": "uint256",
          "internalType": "UD60x18"
        },
        {
          "name": "maxFee",
          "type": "uint256",
          "internalType": "UD60x18"
        }
      ]
    },
    {
      "type": "error",
      "name": "DebtStreamBase_SurplusZero",
      "inputs": [
        {
          "name": "token",
          "type": "address",
          "internalType": "address"
        }
      ]
    },
    {
      "type": "error",
      "name": "DebtStream_BrokerAddressZero",
      "inputs": []
    },
    {
      "type": "error",
      "name": "DebtStream_BrokerFeeTooHigh",
      "inputs": [
        {
          "name": "brokerFee",
          "type": "uint256",
          "internalType": "UD60x18"
        },
        {
          "name": "maxFee",
          "type": "uint256",
          "internalType": "UD60x18"
        }
      ]
    },
    {
      "type": "error",
      "name": "DebtStream_DepositAmountZero",
      "inputs": [
        {
          "name": "streamId",
          "type": "uint256",
          "internalType": "uint256"
        }
      ]
    },
    {
      "type": "error",
      "name": "DebtStream_InvalidCalculation",
      "inputs": [
        {
          "name": "streamId",
          "type": "uint256",
          "internalType": "uint256"
        },
        {
          "name": "availableAmount",
          "type": "uint128",
          "internalType": "uint128"
        },
        {
          "name": "amount",
          "type": "uint128",
          "internalType": "uint128"
        }
      ]
    },
    {
      "type": "error",
      "name": "DebtStream_InvalidTokenDecimals",
      "inputs": [
        {
          "name": "token",
          "type": "address",
          "internalType": "address"
        }
      ]
    },
    {
      "type": "error",
      "name": "DebtStream_NotStreamRecipient",
      "inputs": [
        {
          "name": "recipient",
          "type": "address",
          "internalType": "address"
        },
        {
          "name": "streamRecipient",
          "type": "address",
          "internalType": "address"
        }
      ]
    },
    {
      "type": "error",
      "name": "DebtStream_NotStreamSender",
      "inputs": [
        {
          "name": "sender",
          "type": "address",
          "internalType": "address"
        },
        {
          "name": "streamSender",
          "type": "address",
          "internalType": "address"
        }
      ]
    },
    {
      "type": "error",
      "name": "DebtStream_Null",
      "inputs": [
        {
          "name": "streamId",
          "type": "uint256",
          "internalType": "uint256"
        }
      ]
    },
    {
      "type": "error",
      "name": "DebtStream_Overdraw",
      "inputs": [
        {
          "name": "streamId",
          "type": "uint256",
          "internalType": "uint256"
        },
        {
          "name": "amount",
          "type": "uint128",
          "internalType": "uint128"
        },
        {
          "name": "withdrawableAmount",
          "type": "uint128",
          "internalType": "uint128"
        }
      ]
    },
    {
      "type": "error",
      "name": "DebtStream_RatePerSecondNotDifferent",
      "inputs": [
        {
          "name": "streamId",
          "type": "uint256",
          "internalType": "uint256"
        },
        {
          "name": "ratePerSecond",
          "type": "uint128",
          "internalType": "UD21x18"
        }
      ]
    },
    {
      "type": "error",
      "name": "DebtStream_RefundAmountZero",
      "inputs": [
        {
          "name": "streamId",
          "type": "uint256",
          "internalType": "uint256"
        }
      ]
    },
    {
      "type": "error",
      "name": "DebtStream_RefundOverflow",
      "inputs": [
        {
          "name": "streamId",
          "type": "uint256",
          "internalType": "uint256"
        },
        {
          "name": "refundAmount",
          "type": "uint128",
          "internalType": "uint128"
        },
        {
          "name": "refundableAmount",
          "type": "uint128",
          "internalType": "uint128"
        }
      ]
    },
    {
      "type": "error",
      "name": "DebtStream_SenderZeroAddress",
      "inputs": []
    },
    {
      "type": "error",
      "name": "DebtStream_StreamNotPaused",
      "inputs": [
        {
          "name": "streamId",
          "type": "uint256",
          "internalType": "uint256"
        }
      ]
    },
    {
      "type": "error",
      "name": "DebtStream_StreamPaused",
      "inputs": [
        {
          "name": "streamId",
          "type": "uint256",
          "internalType": "uint256"
        }
      ]
    },
    {
      "type": "error",
      "name": "DebtStream_StreamVoided",
      "inputs": [
        {
          "name": "streamId",
          "type": "uint256",
          "internalType": "uint256"
        }
      ]
    },
    {
      "type": "error",
      "name": "DebtStream_Unauthorized",
      "inputs": [
        {
          "name": "streamId",
          "type": "uint256",
          "internalType": "uint256"
        },
        {
          "name": "caller",
          "type": "address",
          "internalType": "address"
        }
      ]
    },
    {
      "type": "error",
      "name": "DebtStream_WithdrawAmountZero",
      "inputs": [
        {
          "name": "streamId",
          "type": "uint256",
          "internalType": "uint256"
        }
      ]
    },
    {
      "type": "error",
      "name": "DebtStream_WithdrawToZeroAddress",
      "inputs": [
        {
          "name": "streamId",
          "type": "uint256",
          "internalType": "uint256"
        }
      ]
    },
    {
      "type": "error",
      "name": "DebtStream_WithdrawalAddressNotRecipient",
      "inputs": [
        {
          "name": "streamId",
          "type": "uint256",
          "internalType": "uint256"
        },
        {
          "name": "caller",
          "type": "address",
          "internalType": "address"
        },
        {
          "name": "to",
          "type": "address",
          "internalType": "address"
        }
      ]
    },
    {
      "type": "error",
      "name": "DelegateCall",
      "inputs": []
    },
    {
      "type": "error",
      "name": "ERC721IncorrectOwner",
      "inputs": [
        {
          "name": "sender",
          "type": "address",
          "internalType": "address"
        },
        {
          "name": "tokenId",
          "type": "uint256",
          "internalType": "uint256"
        },
        {
          "name": "owner",
          "type": "address",
          "internalType": "address"
        }
      ]
    },
    {
      "type": "error",
      "name": "ERC721InsufficientApproval",
      "inputs": [
        {
          "name": "operator",
          "type": "address",
          "internalType": "address"
        },
        {
          "name": "tokenId",
          "type": "uint256",
          "internalType": "uint256"
        }
      ]
    },
    {
      "type": "error",
      "name": "ERC721InvalidApprover",
      "inputs": [
        {
          "name": "approver",
          "type": "address",
          "internalType": "address"
        }
      ]
    },
    {
      "type": "error",
      "name": "ERC721InvalidOperator",
      "inputs": [
        {
          "name": "operator",
          "type": "address",
          "internalType": "address"
        }
      ]
    },
    {
      "type": "error",
      "name": "ERC721InvalidOwner",
      "inputs": [
        {
          "name": "owner",
          "type": "address",
          "internalType": "address"
        }
      ]
    },
    {
      "type": "error",
      "name": "ERC721InvalidReceiver",
      "inputs": [
        {
          "name": "receiver",
          "type": "address",
          "internalType": "address"
        }
      ]
    },
    {
      "type": "error",
      "name": "ERC721InvalidSender",
      "inputs": [
        {
          "name": "sender",
          "type": "address",
          "internalType": "address"
        }
      ]
    },
    {
      "type": "error",
      "name": "ERC721NonexistentToken",
      "inputs": [
        {
          "name": "tokenId",
          "type": "uint256",
          "internalType": "uint256"
        }
      ]
    },
    {
      "type": "error",
      "name": "FailedInnerCall",
      "inputs": []
    },
    {
      "type": "error",
      "name": "PRBMath_MulDiv18_Overflow",
      "inputs": [
        {
          "name": "x",
          "type": "uint256",
          "internalType": "uint256"
        },
        {
          "name": "y",
          "type": "uint256",
          "internalType": "uint256"
        }
      ]
    },
    {
      "type": "error",
      "name": "PRBMath_UD60x18_IntoUint128_Overflow",
      "inputs": [
        {
          "name": "x",
          "type": "uint256",
          "internalType": "UD60x18"
        }
      ]
    },
    {
      "type": "error",
      "name": "SafeCastOverflowedUintDowncast",
      "inputs": [
        {
          "name": "bits",
          "type": "uint8",
          "internalType": "uint8"
        },
        {
          "name": "value",
          "type": "uint256",
          "internalType": "uint256"
        }
      ]
    },
    {
      "type": "error",
      "name": "SafeERC20FailedOperation",
      "inputs": [
        {
          "name": "token",
          "type": "address",
          "internalType": "address"
        }
      ]
    }
  ],
  "bytecode": {
    "object": "0x60a0604052346103ab57614c996040813803918261001c816103af565b9384928339810103126103ab5780516001600160a01b03811691908290036103ab57602001516001600160a01b038116908190036103ab5761005e60406103af565b91600f83526e1119589d0814dd1c99585b48139195608a1b602084015261008560406103af565b600b81526a444542542d53545245414d60a81b60208201523060805283519092906001600160401b0381116102bc57600154600181811c911680156103a1575b602082101461029e57601f811161033e575b50602094601f82116001146102db579481929394955f926102d0575b50508160011b915f199060031b1c1916176001555b82516001600160401b0381116102bc57600254600181811c911680156102b2575b602082101461029e57601f811161023b575b506020601f82116001146101d857819293945f926101cd575b50508160011b915f199060031b1c1916176002555b60016008555f80546001600160a01b031990811684178255600980549091169290921790915560405191907fbdd36143ee09de60bdefca70680e0f71189b2ed7acee364b53917ad433fdaf808180a36148c490816103d582396080518161324d0152f35b015190505f80610154565b601f1982169060025f52805f20915f5b8181106102235750958360019596971061020b575b505050811b01600255610169565b01515f1960f88460031b161c191690555f80806101fd565b9192602060018192868b0151815501940192016101e8565b60025f527f405787fa12a823e0f2b7631cc41b3ba8828b3321ca811111fa75cd3aa3bb5ace601f830160051c81019160208410610294575b601f0160051c01905b818110610289575061013b565b5f815560010161027c565b9091508190610273565b634e487b7160e01b5f52602260045260245ffd5b90607f1690610129565b634e487b7160e01b5f52604160045260245ffd5b015190505f806100f3565b601f1982169560015f52805f20915f5b8881106103265750836001959697981061030e575b505050811b01600155610108565b01515f1960f88460031b161c191690555f8080610300565b919260206001819286850151815501940192016102eb565b60015f527fb10e2d527612073b26eecdfd717e6a320cf44b4afac2b0732d9fcbe2b7fa0cf6601f830160051c81019160208410610397575b601f0160051c01905b81811061038c57506100d7565b5f815560010161037f565b9091508190610376565b90607f16906100c5565b5f80fd5b6040519190601f01601f191682016001600160401b038111838210176102bc5760405256fe6080806040526004361015610012575f80fd5b5f3560e01c90816301ffc9a7146128405750806306fdde0314612785578063081812fc1461276757806308b879231461272d578063095ea7b3146126105780630c5fd195146125c6578063136439dd1461252e5780631400ecec146124f45780631e0104391461249d5780631e897afb146123745780631e99d569146123575780631f0cce581461224857806323b872dd1461223157806324903ac4146121dc578063379d871a1461213b57806342842e0e1461211257806342e3e23d1461087157806344267570146120ec578063450ac908146120a4578063569f4c5914612054578063597150fa1461200c5780635ea2145b14611d395780635f55315214611d015780636352211e14611cd2578063648bf77414611b795780636d0cee7514611b2b57806370a0823114611ac157806375829def14611a3b5780637c7e10af146118f85780637cad6cd1146118195780637ddf9228146117df57806380448da31461179757806381632a861461170b578063894e9a0d1461155e57806395d89b411461141f578063a22cb4651461134d578063a7de07cd146112ff578063a8a482a6146111f4578063ad35efd41461117c578063b25645691461112c578063b5b3ca2c14610ff0578063b61f758314610f4d578063b62b31e414610f15578063b88d4fde14610e8b578063b8a3be6614610e56578063b971302a14610e05578063bc063e1a14610de3578063bc7a2d6c14610da9578063bcbd019e14610cd3578063bdf2a43c14610c8a578063c2f8e75014610a35578063c87b56dd14610923578063d4b80884146108a9578063d975dfed14610871578063e4b50cb814610820578063e985e9c5146107c7578063ea5ead1914610750578063eb5710d8146106d3578063ebb6f79a1461059c578063f851a44014610577578063fbf2777e146104f7578063fdd46d60146104205763ffe3d9f8146102d1575f80fd5b3461041c57604060031936011261041c576102ea612973565b6102f2612989565b6001600160a01b035f54163381036103ed57506001600160a01b03821691825f52600b6020526fffffffffffffffffffffffffffffffff60405f2054169081156103c157818361038592865f52600b60205260405f207fffffffffffffffffffffffffffffffff000000000000000000000000000000008154169055865f52600760205260405f20838154039055613de4565b6001600160a01b036040519216825260208201527fc9a4a66b97fd7e52e69c5be7b10bdc5341bded817201b9b7136a75068d4e4e0560403392a3005b837fc2c03612000000000000000000000000000000000000000000000000000000005f5260045260245ffd5b7fc6cce6a4000000000000000000000000000000000000000000000000000000005f526004523360245260445ffd5b5f80fd5b3461041c57606060031936011261041c5760043561043c612989565b6104446129ea565b9061044d613243565b825f52600c60205260ff600160405f20015460c81c16156104cb5761049783927ff8e1a15aba9398e019f0b49df1a4fde98ee17ae345cb5f6b5e2c27f5033e8ce792602095614106565b939092604051908152a1604080516fffffffffffffffffffffffffffffffff928316815292909116602083015290f35b0390f35b827f92d01c0c000000000000000000000000000000000000000000000000000000005f5260045260245ffd5b3461041c5760c060031936011261041c57610510612973565b610518612989565b906105216129ea565b9161052a6129b5565b91610533612a85565b60a435936fffffffffffffffffffffffffffffffff8516850361041c5760209561056f9461056894610563613243565b6137df565b91826134be565b604051908152f35b3461041c575f60031936011261041c5760206001600160a01b035f5416604051908152f35b3461041c57604060031936011261041c576004356105b86129cb565b6105c0613243565b815f52600c60205260ff600160405f20015460c81c16156106a757815f52600c60205260ff600160405f20015460d81c1661067b57815f52600c6020526001600160a01b03600160405f20015416330361064b57816106426020927ff8e1a15aba9398e019f0b49df1a4fde98ee17ae345cb5f6b5e2c27f5033e8ce794613435565b604051908152a1005b507f1df35ae4000000000000000000000000000000000000000000000000000000005f526004523360245260445ffd5b507f96cb8556000000000000000000000000000000000000000000000000000000005f5260045260245ffd5b507f92d01c0c000000000000000000000000000000000000000000000000000000005f5260045260245ffd5b3461041c57602060031936011261041c57600435805f52600c60205260ff600160405f20015460c81c1615610725575f52600c602052602064ffffffffff600160405f20015460a01c16604051908152f35b7f92d01c0c000000000000000000000000000000000000000000000000000000005f5260045260245ffd5b3461041c57604060031936011261041c5760043561076c612989565b610774613243565b815f52600c60205260ff600160405f20015460c81c16156106a757907ff8e1a15aba9398e019f0b49df1a4fde98ee17ae345cb5f6b5e2c27f5033e8ce76104976020936107c08461379b565b9084614106565b3461041c57604060031936011261041c576107e0612973565b6001600160a01b036107f0612989565b91165f5260066020526001600160a01b0360405f2091165f52602052602060ff60405f2054166040519015158152f35b3461041c57602060031936011261041c57600435805f52600c60205260ff600160405f20015460c81c1615610725575f52600c60205260206001600160a01b03600260405f20015416604051908152f35b3461041c57602060031936011261041c57602061088f600435612e41565b6fffffffffffffffffffffffffffffffff60405191168152f35b3461041c57602060031936011261041c57600435805f52600c60205260ff600160405f20015460c81c161561072557805f52600c60205260405f205460801c156108f85761056f6020916130bc565b7f5158888e000000000000000000000000000000000000000000000000000000005f5260045260245ffd5b3461041c57602060031936011261041c57600435610940816131b5565b505f6001600160a01b0360095416916044604051809481937fe9dc637500000000000000000000000000000000000000000000000000000000835230600484015260248301525afa8015610a2a575f906109ad575b6104c790604051918291602083526020830190612930565b503d805f833e6109bd8183612ab1565b81019060208183031261041c5780519067ffffffffffffffff821161041c57019080601f8301121561041c578151916109f583612af2565b91610a036040519384612ab1565b8383526020848301011161041c576104c792610a25916020808501910161290f565b610995565b6040513d5f823e3d90fd5b3461041c5760c060031936011261041c57600435610a516129cb565b610a5961299f565b610a616129b5565b60407fffffffffffffffffffffffffffffffffffffffffffffffffffffffffffffff7c36011261041c57610a93613243565b835f52600c60205260ff600160405f20015460c81c1615610c5e57835f52600c60205260ff600160405f20015460d81c16610c3257610ad29184613ffb565b604051916040830183811067ffffffffffffffff821117610c05576040526084356001600160a01b038116810361041c57835260a435602084019080825267016345785d8a00008111610bce57506001600160a01b0384511615610ba6577ff8e1a15aba9398e019f0b49df1a4fde98ee17ae345cb5f6b5e2c27f5033e8ce793610b6f610b66602095610642945190614700565b859291926134be565b835f52600c85526fffffffffffffffffffffffffffffffff6001600160a01b0380600260405f20015416935116911691339061454a565b7f06136175000000000000000000000000000000000000000000000000000000005f5260045ffd5b7f40964ebd000000000000000000000000000000000000000000000000000000005f5260045267016345785d8a000060245260445ffd5b7f4e487b71000000000000000000000000000000000000000000000000000000005f52604160045260245ffd5b837f96cb8556000000000000000000000000000000000000000000000000000000005f5260045260245ffd5b837f92d01c0c000000000000000000000000000000000000000000000000000000005f5260045260245ffd5b3461041c57602060031936011261041c57600435805f52600c60205260ff600160405f20015460c81c1615610725575f52600c602052602060405f205460801c15604051908152f35b3461041c57604060031936011261041c57600435610cef6129cb565b610cf7613243565b815f52600c60205260ff600160405f20015460c81c16156106a757815f52600c60205260405f205460801c15610d7d57815f52600c6020526001600160a01b03600160405f20015416330361064b5781610d746020927ff8e1a15aba9398e019f0b49df1a4fde98ee17ae345cb5f6b5e2c27f5033e8ce7946134be565b6106428161329d565b507f5158888e000000000000000000000000000000000000000000000000000000005f5260045260245ffd5b3461041c57602060031936011261041c57600435805f52600c60205260ff600160405f20015460c81c16156107255761056f602091613fc1565b3461041c575f60031936011261041c57602060405167016345785d8a00008152f35b3461041c57602060031936011261041c57600435805f52600c60205260ff600160405f20015460c81c1615610725575f52600c60205260206001600160a01b03600160405f20015416604051908152f35b3461041c57602060031936011261041c576004355f52600c602052602060ff600160405f20015460c81c166040519015158152f35b3461041c57608060031936011261041c57610ea4612973565b610eac612989565b6064359167ffffffffffffffff831161041c573660238401121561041c57826004013591610ed983612af2565b92610ee76040519485612ab1565b808452366024828701011161041c576020815f926024610f139801838801378501015260443591612ed0565b005b3461041c57602060031936011261041c576001600160a01b03610f36612973565b165f52600a602052602060405f2054604051908152f35b3461041c57608060031936011261041c57600435610f696129cb565b610f7161299f565b610f796129b5565b90610f82613243565b835f52600c60205260ff600160405f20015460c81c1615610c5e57835f52600c60205260ff600160405f20015460d81c16610c3257602092610fea8593610642937ff8e1a15aba9398e019f0b49df1a4fde98ee17ae345cb5f6b5e2c27f5033e8ce797613ffb565b826134be565b3461041c57604060031936011261041c57611009612973565b602435906001600160a01b035f54163381036103ed575067016345785d8a000082116110f4576001600160a01b031690815f52600a60205260405f205490825f52600a6020528060405f205560405191825260208201527f371789a3d97098f3070492613273a065a7e8a19e009fd1ae92a4b4d4c71ed62d60403392a36008545f1981019081116110c75760407f6bd5c950a8d8df17f772f5af37cb3655737899cbf903264b9795592da439661c91815190600182526020820152a1005b7f4e487b71000000000000000000000000000000000000000000000000000000005f52601160045260245ffd5b507f5ef18d1b000000000000000000000000000000000000000000000000000000005f5260045267016345785d8a000060245260445ffd5b3461041c57602060031936011261041c57600435805f52600c60205260ff600160405f20015460c81c1615610725575f52600c602052602060ff600160405f20015460d01c166040519015158152f35b3461041c57602060031936011261041c57600435805f52600c60205260ff600160405f20015460c81c1615610725576111b490612e75565b60405160058210156111c7576020918152f35b7f4e487b71000000000000000000000000000000000000000000000000000000005f52602160045260245ffd5b3461041c57604060031936011261041c576004356112106129cb565b611218613243565b815f52600c60205260ff600160405f20015460c81c16156106a757815f52600c60205260405f205460801c15610d7d57815f52600c6020526001600160a01b03600160405f20015416330361064b5781807ffddf01d0842635e80929251f6862b3baf136a29f2b2fb148968e8b236d5785fe60606020947ff8e1a15aba9398e019f0b49df1a4fde98ee17ae345cb5f6b5e2c27f5033e8ce7965f52600c86526fffffffffffffffffffffffffffffffff60405f205460801c916112db8187613e90565b6112e486613201565b9260405193845288840152166040820152a2604051908152a1005b3461041c57602060031936011261041c57600435805f52600c60205260ff600160405f20015460c81c1615610725575f52600c602052602060ff600260405f20015460a01c16604051908152f35b3461041c57604060031936011261041c57611366612973565b6024359081151580920361041c576001600160a01b03169081156113f357335f52600660205260405f20825f5260205260405f207fffffffffffffffffffffffffffffffffffffffffffffffffffffffffffffff0081541660ff83161790556040519081527f17307eab39ab6107e8899845ad3d59bd9653f200f220920489ca2b5937696c3160203392a3005b507f5b08ba18000000000000000000000000000000000000000000000000000000005f5260045260245ffd5b3461041c575f60031936011261041c576040515f6002548060011c90600181168015611554575b602083108114611527578285529081156114e55750600114611487575b6104c78361147381850382612ab1565b604051918291602083526020830190612930565b91905060025f527f405787fa12a823e0f2b7631cc41b3ba8828b3321ca811111fa75cd3aa3bb5ace915f905b8082106114cb57509091508101602001611473611463565b9192600181602092548385880101520191019092916114b3565b7fffffffffffffffffffffffffffffffffffffffffffffffffffffffffffffff001660208086019190915291151560051b840190910191506114739050611463565b7f4e487b71000000000000000000000000000000000000000000000000000000005f52602260045260245ffd5b91607f1691611446565b3461041c57602060031936011261041c576004355f61012060405161158281612a94565b8281528260208201528260408201528260608201528260808201528260a08201528260c08201528260e0820152826101008201520152805f52600c60205260ff600160405f20015460c81c1615610725575f52600c60205260405f206040516115ea81612a94565b81546fffffffffffffffffffffffffffffffff811692838352602083019160801c82526001810154604084016001600160a01b0382168152606085018260a01c64ffffffffff16815260808601908360c81c60ff161515825260a08701928460d01c60ff161515845260c088019460d81c60ff161515855260028601549660e08901966001600160a01b03891688526101008a019860a01c60ff168952600301549861012001988952604051998a52516fffffffffffffffffffffffffffffffff1660208a0152516001600160a01b031660408901525164ffffffffff166060880152511515608087015251151560a086015251151560c0850152516001600160a01b031660e08401525160ff166101008301525161012082015261014090f35b3461041c57604060031936011261041c576004356117276129cb565b61172f613243565b815f52600c60205260ff600160405f20015460c81c16156106a757815f52600c6020526001600160a01b03600160405f20015416330361064b57816106426020927ff8e1a15aba9398e019f0b49df1a4fde98ee17ae345cb5f6b5e2c27f5033e8ce7946135c6565b3461041c57602060031936011261041c57600435805f52600c60205260ff600160405f20015460c81c1615610725575f52600c602052602060405f205460801c604051908152f35b3461041c57602060031936011261041c57600435805f52600c60205260ff600160405f20015460c81c16156107255761056f602091613e40565b3461041c57602060031936011261041c576004356001600160a01b03811680910361041c576001600160a01b035f54163381036103ed575060095490807fffffffffffffffffffffffff00000000000000000000000000000000000000008316176009556001600160a01b036040519216825260208201527fa2548bd4b805e907c1558a47b5858324fe8bb4a2e1ddfca647eecbf65610eebc60403392a26008545f1981019081116110c75760407f6bd5c950a8d8df17f772f5af37cb3655737899cbf903264b9795592da439661c91815190600182526020820152a1005b3461041c57602060031936011261041c576001600160a01b03611919612973565b165f52600d60205260405f2060405190818260208354928381520180935f5260205f20925f5b818110611a2257505061195492500383612ab1565b81511561199e5790604051918291602083019060208452518091526040830191905f5b818110611985575050500390f35b8251845285945060209384019390920191600101611977565b60846040517f08c379a000000000000000000000000000000000000000000000000000000000815260206004820152602560248201527f53747265616d20646f6573206e6f7420657869737420666f722074686973207360448201527f656e6465720000000000000000000000000000000000000000000000000000006064820152fd5b845483526001948501948794506020909301920161193f565b3461041c57602060031936011261041c57611a54612973565b5f546001600160a01b0381163381036103ed57506001600160a01b037fffffffffffffffffffffffff0000000000000000000000000000000000000000921691829116175f55337fbdd36143ee09de60bdefca70680e0f71189b2ed7acee364b53917ad433fdaf805f80a3005b3461041c57602060031936011261041c576001600160a01b03611ae2612973565b168015611aff575f526004602052602060405f2054604051908152f35b7f89c62b64000000000000000000000000000000000000000000000000000000005f525f60045260245ffd5b3461041c57602060031936011261041c57600435805f52600c60205260ff600160405f20015460c81c1615610725575f52600360205260206001600160a01b0360405f205416604051908152f35b3461041c57604060031936011261041c57611b92612973565b611b9a612989565b6001600160a01b035f54163381036103ed57506001600160a01b038216916040517f70a08231000000000000000000000000000000000000000000000000000000008152306004820152602081602481875afa8015610a2a575f90611c9e575b611c129150845f52600760205260405f205490612e68565b908115611c725781611c497f21252411d5a999da4bc6a490f7143b61ba690edceb4577a2800eab8dfbb1e92c9385611c6d94613de4565b604051918291339583602090939291936001600160a01b0360408201951681520152565b0390a3005b837fba8272c1000000000000000000000000000000000000000000000000000000005f5260045260245ffd5b506020813d602011611cca575b81611cb860209383612ab1565b8101031261041c57611c129051611bfa565b3d9150611cab565b3461041c57602060031936011261041c576020611cf06004356131b5565b6001600160a01b0360405191168152f35b3461041c57602060031936011261041c576001600160a01b03611d22612973565b165f526007602052602060405f2054604051908152f35b3461041c57602060031936011261041c57600435611d55613243565b805f52600c60205260ff600160405f20015460c81c161561072557805f52600c60205260ff600160405f20015460d81c16611fe157805f52600c6020526001600160a01b03600160405f2001541633141580611fd1575b611fa257602081611ddd7ff8e1a15aba9398e019f0b49df1a4fde98ee17ae345cb5f6b5e2c27f5033e8ce793613fc1565b80611f5257611deb82613e40565b80611f31575b505b5f828152600c84526040902060010180547fffffffffffffff0000000000ffffffffffffffffffffffffffffffffffffffff164260a01b78ffffffffff000000000000000000000000000000000000000016179055815f52600c835260405f206fffffffffffffffffffffffffffffffff8154169055815f52600c8352600160405f20017b010000000000000000000000000000000000000000000000000000007fffffffff00ffffffffffffffffffffffffffffffffffffffffffffffffffffff825416179055815f52600c83526001600160a01b03600160405f20015416825f5260038452827fa8e3d71a6c0c719305004b430f6d17f12536f7b803db23a4d7016f5b52699a8c60606001600160a01b0360405f20541694611f1684613201565b9060405191338352898301526040820152a4604051908152a1005b825f52600c8452611f4a600360405f2001918254613078565b905584611df1565b815f52600c8352611f8e6fffffffffffffffffffffffffffffffff60405f205416835f52600c855260ff600260405f20015460a01c16906140ed565b825f52600c8452600360405f200155611df3565b7f1df35ae4000000000000000000000000000000000000000000000000000000005f526004523360245260445ffd5b50611fdb81614600565b15611dac565b7f96cb8556000000000000000000000000000000000000000000000000000000005f5260045260245ffd5b3461041c5760a060031936011261041c57602061056f61202a612973565b612032612989565b61203a6129ea565b6120426129b5565b9161204b612a85565b93610563613243565b3461041c57602060031936011261041c57600435805f52600c60205260ff600160405f20015460c81c1615610725575f52600c602052602060ff600160405f20015460d81c166040519015158152f35b3461041c57602060031936011261041c57600435805f52600c60205260ff600160405f20015460c81c1615610725575f52600c6020526020600360405f200154604051908152f35b3461041c575f60031936011261041c5760206001600160a01b0360095416604051908152f35b3461041c57610f1361212336612a09565b9060405192612133602085612ab1565b5f8452612ed0565b3461041c57604060031936011261041c576004356121576129cb565b61215f613243565b815f52600c60205260ff600160405f20015460c81c16156106a757815f52600c60205260405f205460801c15610d7d57815f52600c6020526001600160a01b03600160405f20015416330361064b5781610d746020927ff8e1a15aba9398e019f0b49df1a4fde98ee17ae345cb5f6b5e2c27f5033e8ce7946135c6565b3461041c57604060031936011261041c576121f5612973565b6001600160a01b0360243591165f52600d60205260405f20805482101561041c5760209161222291612a43565b90549060031b1c604051908152f35b3461041c57610f1361224236612a09565b91612b7d565b3461041c57606060031936011261041c576004356122646129cb565b61226c6129ea565b90612275613243565b825f52600c60205260ff600160405f20015460c81c16156104cb57825f52600c60205260ff600160405f20015460d81c1661232b57825f52600c6020526001600160a01b03600160405f2001541633036122fb5791610642602092610fea7ff8e1a15aba9398e019f0b49df1a4fde98ee17ae345cb5f6b5e2c27f5033e8ce79584613435565b827f1df35ae4000000000000000000000000000000000000000000000000000000005f526004523360245260445ffd5b827f96cb8556000000000000000000000000000000000000000000000000000000005f5260045260245ffd5b3461041c575f60031936011261041c576020600854604051908152f35b3461041c57602060031936011261041c5760043567ffffffffffffffff811161041c573660238201121561041c57806004013567ffffffffffffffff811161041c573660248260051b8401011161041c57905f907fffffffffffffffffffffffffffffffffffffffffffffffffffffffffffffffbd81360301915b83811015610f135760248160051b830101358381121561041c57820160248101359067ffffffffffffffff821161041c57604401813603811361041c57815f92918392604051928392833781018381520390305af461244c612b4e565b901561245b57506001016123ef565b612499906040519182917fd9354485000000000000000000000000000000000000000000000000000000008352602060048401526024830190612930565b0390fd5b3461041c57602060031936011261041c57600435805f52600c60205260ff600160405f20015460c81c1615610725575f52600c60205260206fffffffffffffffffffffffffffffffff60405f205416604051908152f35b3461041c57602060031936011261041c57600435805f52600c60205260ff600160405f20015460c81c16156107255761088f602091613403565b3461041c57602060031936011261041c5760043561254a613243565b805f52600c60205260ff600160405f20015460c81c161561072557805f52600c60205260405f205460801c156108f857805f52600c6020526001600160a01b03600160405f200154163303611fa2576020816106427ff8e1a15aba9398e019f0b49df1a4fde98ee17ae345cb5f6b5e2c27f5033e8ce79361329d565b3461041c57602060031936011261041c576001600160a01b036125e7612973565b165f52600b60205260206fffffffffffffffffffffffffffffffff60405f205416604051908152f35b3461041c57604060031936011261041c57612629612973565b602435612635816131b5565b3315158061271a575b806126e7575b6126bb5781906001600160a01b0380851691167f8c5be1e5ebec7d5bd14f71427d1e84f3dd0314c0f7b2291e5b200ac8c7c3b9255f80a45f5260056020526001600160a01b0360405f2091167fffffffffffffffffffffffff00000000000000000000000000000000000000008254161790555f80f35b7fa9fbf51f000000000000000000000000000000000000000000000000000000005f523360045260245ffd5b506001600160a01b0381165f52600660205260405f206001600160a01b0333165f5260205260ff60405f20541615612644565b50336001600160a01b038216141561263e565b3461041c57602060031936011261041c57600435805f52600c60205260ff600160405f20015460c81c16156107255761056f602091613201565b3461041c57602060031936011261041c576020611cf0600435612b2c565b3461041c575f60031936011261041c576040515f6001548060011c90600181168015612836575b602083108114611527578285529081156114e557506001146127d8576104c78361147381850382612ab1565b91905060015f527fb10e2d527612073b26eecdfd717e6a320cf44b4afac2b0732d9fcbe2b7fa0cf6915f905b80821061281c57509091508101602001611473611463565b919260018160209254838588010152019101909291612804565b91607f16916127ac565b3461041c57602060031936011261041c57600435907fffffffff00000000000000000000000000000000000000000000000000000000821680920361041c57817f80ac58cd00000000000000000000000000000000000000000000000000000000602093149081156128e5575b81156128bb575b5015158152f35b7f01ffc9a700000000000000000000000000000000000000000000000000000000915014836128b4565b7f5b5e139f00000000000000000000000000000000000000000000000000000000811491506128ad565b5f5b8381106129205750505f910152565b8181015183820152602001612911565b907fffffffffffffffffffffffffffffffffffffffffffffffffffffffffffffffe0601f60209361296c8151809281875287808801910161290f565b0116010190565b600435906001600160a01b038216820361041c57565b602435906001600160a01b038216820361041c57565b604435906001600160a01b038216820361041c57565b606435906001600160a01b038216820361041c57565b602435906fffffffffffffffffffffffffffffffff8216820361041c57565b604435906fffffffffffffffffffffffffffffffff8216820361041c57565b600319606091011261041c576004356001600160a01b038116810361041c57906024356001600160a01b038116810361041c579060443590565b8054821015612a58575f5260205f2001905f90565b7f4e487b71000000000000000000000000000000000000000000000000000000005f52603260045260245ffd5b60843590811515820361041c57565b610140810190811067ffffffffffffffff821117610c0557604052565b90601f7fffffffffffffffffffffffffffffffffffffffffffffffffffffffffffffffe0910116810190811067ffffffffffffffff821117610c0557604052565b67ffffffffffffffff8111610c0557601f017fffffffffffffffffffffffffffffffffffffffffffffffffffffffffffffffe01660200190565b612b35816131b5565b505f5260056020526001600160a01b0360405f20541690565b3d15612b78573d90612b5f82612af2565b91612b6d6040519384612ab1565b82523d5f602084013e565b606090565b91906001600160a01b0316918215612e1557815f5260036020526001600160a01b0360405f205416151580612df8575b612dcc57815f5260036020526001600160a01b0360405f2054169233151580612d04575b50907ff8e1a15aba9398e019f0b49df1a4fde98ee17ae345cb5f6b5e2c27f5033e8ce760206001600160a01b039386612cb6575b805f526004825260405f2060018154019055855f526003825260405f20817fffffffffffffffffffffffff00000000000000000000000000000000000000008254161790558560405191887fddf252ad1be2c89b69c2b068fc378daa952ba7f163c4a11628f55a4df523b3ef5f80a4858152a116808303612c8557505050565b7f64283d7b000000000000000000000000000000000000000000000000000000005f5260045260245260445260645ffd5b612ced865f52600560205260405f207fffffffffffffffffffffffff00000000000000000000000000000000000000008154169055565b865f526004825260405f205f198154019055612c05565b80612d75575b15612d15575f612bd1565b8284612d46577f7e273289000000000000000000000000000000000000000000000000000000005f5260045260245ffd5b7f177e802f000000000000000000000000000000000000000000000000000000005f523360045260245260445ffd5b503384148015612da3575b80612d0a5750825f526005602052336001600160a01b0360405f20541614612d0a565b50835f52600660205260405f206001600160a01b0333165f5260205260ff60405f205416612d80565b507f123f349c000000000000000000000000000000000000000000000000000000005f5260045260245ffd5b50815f52600c60205260ff600160405f20015460d01c1615612bad565b7f64a0ae92000000000000000000000000000000000000000000000000000000005f525f60045260245ffd5b805f52600c60205260ff600160405f20015460c81c161561072557612e659061379b565b90565b919082039182116110c757565b805f52600c60205260ff600160405f20015460d81c16612eca57612e9881613fc1565b1515905f52600c60205260405f205460801c15612ebc57612eb7575f90565b600190565b612ec557600290565b600390565b50600490565b90612edc838284612b7d565b803b612ee9575b50505050565b602091612f486001600160a01b038093169560405195869485947f150b7a020000000000000000000000000000000000000000000000000000000086523360048701521660248501526044840152608060648401526084830190612930565b03815f865af15f918161301b575b50612f9d5750612f64612b4e565b80519081612f9857827f64a0ae92000000000000000000000000000000000000000000000000000000005f5260045260245ffd5b602001fd5b7fffffffff000000000000000000000000000000000000000000000000000000007f150b7a0200000000000000000000000000000000000000000000000000000000911603612ff057505f808080612ee3565b7f64a0ae92000000000000000000000000000000000000000000000000000000005f5260045260245ffd5b9091506020813d602011613070575b8161303760209383612ab1565b8101031261041c57517fffffffff000000000000000000000000000000000000000000000000000000008116810361041c57905f612f56565b3d915061302a565b919082018092116110c757565b811561308f570490565b7f4e487b71000000000000000000000000000000000000000000000000000000005f52601260045260245ffd5b805f52600c6020526fffffffffffffffffffffffffffffffff60405f2054169081156131af57805f52600c60205261310260ff600260405f20015460a01c1680936140ed565b91815f52600c60205261311c600360405f200154916140d0565b9061312f61312984613e40565b82613078565b6131398386613078565b11156131a757825f52600c60205260405f205460801c9303019161315d8184613085565b92811561308f5706613186575f52600c60205264ffffffffff600160405f20015460a01c160190565b906001915f52600c60205264ffffffffff8260405f20015460a01c16010190565b505050505f90565b50505f90565b805f5260036020526001600160a01b0360405f2054169081156131d6575090565b7f7e273289000000000000000000000000000000000000000000000000000000005f5260045260245ffd5b612e659061322761321182613e40565b825f52600c602052600360405f20015490613078565b905f52600c60205260ff600260405f20015460a01c169061452a565b6001600160a01b037f000000000000000000000000000000000000000000000000000000000000000016300361327557565b7fa1c0d6e5000000000000000000000000000000000000000000000000000000005f5260045ffd5b805f52600c60205260405f205460801c156133a2576132bb81613e40565b80613380575b505f818152600c6020908152604080832060018101805478ffffffffff00000000000000000000000000000000000000004260a01b167fffffffffffffff0000000000ffffffffffffffffffffffffffffffffffffffff82161790915581546fffffffffffffffffffffffffffffffff16909155600383529220546001600160a01b0390811693921691907fda83bf669c651406e02062769e01d14cccb5625ea685fd95e0e56d29597dac479061337783613201565b604051908152a4565b815f52600c60205261339a600360405f2001918254613078565b90555f6132c1565b7f72ee449a000000000000000000000000000000000000000000000000000000005f526004525f60245260445ffd5b906fffffffffffffffffffffffffffffffff809116911603906fffffffffffffffffffffffffffffffff82116110c757565b612e6590805f52600c60205261342f6fffffffffffffffffffffffffffffffff60405f2054169161379b565b906133d1565b805f52600c60205260405f205460801c613493576134538282613e90565b6fffffffffffffffffffffffffffffffff604051921682527fc2a543cfadbf862642247e28711aaa30e3460384be5712be6557fee3384454fd60203393a3565b7ffe535094000000000000000000000000000000000000000000000000000000005f5260045260245ffd5b906fffffffffffffffffffffffffffffffff1690811561359b575f818152600c60205260409020600281015481546fffffffffffffffffffffffffffffffff9081168501916001600160a01b03169082116110c75761356d926fffffffffffffffffffffffffffffffff8693167fffffffffffffffffffffffffffffffff00000000000000000000000000000000825416179055805f52600760205260405f208281540190553090339061454a565b6040519182527fa06c1466b3c9751408a5ac337a2e8808e5ee0ceed1fd70635d041b21174eb6b460203393a3565b7fe01053fe000000000000000000000000000000000000000000000000000000005f5260045260245ffd5b6fffffffffffffffffffffffffffffffff8216801561376f576fffffffffffffffffffffffffffffffff6135f983613403565b1680821161373d57825f52600c6020526fffffffffffffffffffffffffffffffff60405f205416106136eb5760207fe31f2d40d5780915b1e656a67e11bdf09b0a4a925ec42bbeae220c8ca937ab4991835f52600c82526136e2816001600160a01b03600160405f200154168097875f52600c86526001600160a01b03600260405f2001541690885f52600c87526fffffffffffffffffffffffffffffffff8060405f2092818454160316167fffffffffffffffffffffffffffffffff00000000000000000000000000000000825416179055805f526007865260405f20838154039055613de4565b604051908152a3565b90805f52600c6020526fffffffffffffffffffffffffffffffff60405f205416907f38dcd410000000000000000000000000000000000000000000000000000000005f5260045260245260445260645ffd5b917fd8ffee82000000000000000000000000000000000000000000000000000000005f5260045260245260445260645ffd5b507f0ad01274000000000000000000000000000000000000000000000000000000005f5260045260245ffd5b805f52600c6020526fffffffffffffffffffffffffffffffff60405f2054169081156131af576137ca90613201565b8082106137db57612e6591506145a4565b5090565b6001600160a01b039095949293919516908115613dbc576001600160a01b0316926040517f313ce567000000000000000000000000000000000000000000000000000000008152602081600481885afa8015610a2a575f90613d7f575b60ff9150169560128711613d53576008549687866040519261385d84612a94565b5f845260208401956fffffffffffffffffffffffffffffffff1695868152604085019088825260608601994264ffffffffff168b52608087016001815260a088019115159b8c835260c08901935f855260e08a019788526101008a019687526101208a01985f8a525f52600c60205260405f2099516fffffffffffffffffffffffffffffffff166fffffffffffffffffffffffffffffffff168a547fffffffffffffffffffffffffffffffff0000000000000000000000000000000016178a55516fffffffffffffffffffffffffffffffff16613976908a906fffffffffffffffffffffffffffffffff7fffffffffffffffffffffffffffffffff0000000000000000000000000000000083549260801b169116179055565b9351600189018054955178ffffffffff000000000000000000000000000000000000000060a09190911b166001600160a01b039092167fffffffffffffff00000000000000000000000000000000000000000000000000909616959095171784555115159083549051151560d01b7aff0000000000000000000000000000000000000000000000000000169160c81b79ff0000000000000000000000000000000000000000000000000016907fffffffffff0000ffffffffffffffffffffffffffffffffffffffffffffffffff161717825551151581549060d81b7bff00000000000000000000000000000000000000000000000000000016907fffffffff00ffffffffffffffffffffffffffffffffffffffffffffffffffffff161790556002840191516001600160a01b03166001600160a01b031682547fffffffffffffffffffffffff0000000000000000000000000000000000000000161782555181549060a01b74ff000000000000000000000000000000000000000016907fffffffffffffffffffffff00ffffffffffffffffffffffffffffffffffffffff16179055519060030155825f52600d60205260405f209081549168010000000000000000831015610c055782613b579160016001600160a01b0395018155612a43565b81549060031b905f198b831b921b19161790556001880160085516928315612e1557865f5260036020526001600160a01b0360405f205416151580613d36575b613d0a57865f5260036020526001600160a01b0360405f2054167ff8e1a15aba9398e019f0b49df1a4fde98ee17ae345cb5f6b5e2c27f5033e8ce760208215159283613cbc575b875f526004825260405f20600181540190558a5f526003825260405f20887fffffffffffffffffffffffff0000000000000000000000000000000000000000825416179055604051908b89827fddf252ad1be2c89b69c2b068fc378daa952ba7f163c4a11628f55a4df523b3ef5f80a4508a8152a1613c90577f2262fa211f8507786a60fefb231f7898b8145fe16350f281c91f121bd2ee118d916060916040519189835260208301526040820152a4565b7f73c6ac6e000000000000000000000000000000000000000000000000000000005f525f60045260245ffd5b613cf38b5f52600560205260405f207fffffffffffffffffffffffff00000000000000000000000000000000000000008154169055565b805f526004825260405f205f198154019055613bde565b867f123f349c000000000000000000000000000000000000000000000000000000005f5260045260245ffd5b50865f52600c60205260ff600160405f20015460d01c1615613b97565b847fa05b0f3a000000000000000000000000000000000000000000000000000000005f5260045260245ffd5b506020813d602011613db4575b81613d9960209383612ab1565b8101031261041c575160ff8116810361041c5760ff9061383c565b3d9150613d8c565b7ff54bb717000000000000000000000000000000000000000000000000000000005f5260045ffd5b6040517fa9059cbb0000000000000000000000000000000000000000000000000000000060208201526001600160a01b03929092166024830152604480830193909352918152613e3e91613e39606483612ab1565b614672565b565b5f908152600c602052604090206001810154905460801c9060a01c64ffffffffff1681158015613e86575b6131af57804203918083029283041490421417156110c75790565b5080421115613e6b565b91906fffffffffffffffffffffffffffffffff811692805f52600c60205260405f205460801c8414613f9157613e3e929350613ecb81613e40565b80613f6f575b505f908152600c6020526040902060018101805478ffffffffff00000000000000000000000000000000000000004260a01b167fffffffffffffff0000000000ffffffffffffffffffffffffffffffffffffffff90911617905580546fffffffffffffffffffffffffffffffff1660809290921b7fffffffffffffffffffffffffffffffff0000000000000000000000000000000016919091179055565b815f52600c602052613f89600360405f2001918254613078565b90555f613ed1565b83907f72ee449a000000000000000000000000000000000000000000000000000000005f5260045260245260445ffd5b805f52600c602052613fe96fffffffffffffffffffffffffffffffff60405f20541691613201565b90818110156131af57612e6591612e68565b90815f52600c6020526001600160a01b0380600160405f2001541691169081036140885750805f5260036020526001600160a01b038060405f2054169216918203614044575050565b5f5260036020526001600160a01b0360405f205416907f09b10ee1000000000000000000000000000000000000000000000000000000005f5260045260245260445ffd5b905f52600c6020526001600160a01b03600160405f20015416907fed7f943d000000000000000000000000000000000000000000000000000000005f5260045260245260445ffd5b601260ff8216146140e75760120360ff16600a0a90565b50600190565b90601260ff8216146137db5760120360ff16600a0a0290565b5f9392916fffffffffffffffffffffffffffffffff83169182156144ff576001600160a01b0382169182156144d357815f5260036020526001600160a01b0360405f205416831415806144c3575b61449057815f52600c60205260ff600260405f20015460a01c169361419161417b84613e40565b845f52600c602052600360405f20015490613078565b61419b868261452a565b95845f52600c6020526fffffffffffffffffffffffffffffffff60405f205416928784105f14614471576fffffffffffffffffffffffffffffffff845b1680821161443e5750906141eb916140ed565b90845f52600c602052600360405f2001548211155f146143db5750835f52600c602052600360405f20019081540390555b5f838152600c6020908152604080832080546fffffffffffffffffffffffffffffffff8082168c9003167fffffffffffffffffffffffffffffffff00000000000000000000000000000000909116178155600201546001600160a01b0316808452600a909252909120549095908061436d575b506142ed6142d76fffffffffffffffffffffffffffffffff926142c8848b1680978b5f52600760205260405f208281540390558b613de4565b6142d187613201565b90612e68565b92855f52600c6020528260405f205416906133d1565b16036143405760607f1a7b0d6c8f96b874563b711cf97793fe3be5dc42dbd1e0720ce40f326918e817916040519033825260208201526fffffffffffffffffffffffffffffffff89166040820152a49190565b7f4e487b71000000000000000000000000000000000000000000000000000000005f52600160045260245ffd5b6142d799506143916142ed916fffffffffffffffffffffffffffffffff9399614700565b9a909a988b895f52600b602052848060405f2092818454160116167fffffffffffffffffffffffffffffffff0000000000000000000000000000000082541617905592505061428f565b5f858152600c60205260409020919003600382015560010180547fffffffffffffff0000000000ffffffffffffffffffffffffffffffffffffffff164260a01b78ffffffffff00000000000000000000000000000000000000001617905561421c565b90867f15d272a1000000000000000000000000000000000000000000000000000000005f5260045260245260445260645ffd5b6fffffffffffffffffffffffffffffffff61448b896145a4565b6141d8565b507fe5959101000000000000000000000000000000000000000000000000000000005f526004523360245260445260645ffd5b506144cd82614600565b15614154565b507fcf1fa0b8000000000000000000000000000000000000000000000000000000005f5260045260245ffd5b7fe925abc7000000000000000000000000000000000000000000000000000000005f5260045260245ffd5b90601260ff8216146137db579060ff612e659260120316600a0a90613085565b9091926001600160a01b03613e3e9481604051957f23b872dd000000000000000000000000000000000000000000000000000000006020880152166024860152166044840152606483015260648252613e39608483612ab1565b6fffffffffffffffffffffffffffffffff81116145d0576fffffffffffffffffffffffffffffffff1690565b7f6dfcc650000000000000000000000000000000000000000000000000000000005f52608060045260245260445ffd5b805f5260036020526001600160a01b0360405f20541690813314918215614646575b50811561462d575090565b90506001600160a01b036146413392612b2c565b161490565b9091505f52600660205260405f206001600160a01b0333165f5260205260ff60405f205416905f614622565b5f806001600160a01b0361469b93169360208151910182865af1614694612b4e565b908361482b565b80519081151591826146dc575b50506146b15750565b7f5274afe7000000000000000000000000000000000000000000000000000000005f5260045260245ffd5b819250906020918101031261041c576020015180159081150361041c575f806146a8565b919061471e906fffffffffffffffffffffffffffffffff841661477d565b6fffffffffffffffffffffffffffffffff8111614752576fffffffffffffffffffffffffffffffff612e65911680936133d1565b7f4916adce000000000000000000000000000000000000000000000000000000005f5260045260245ffd5b9190915f198382098382029182808310920391808303921461481a57670de0b6b3a76400008210156147ea577faccb18165bd6fe31ae1cf318dc5b51eee0e1ba569b88cd74c1773b91fac106699394670de0b6b3a7640000910990828211900360ee1b910360121c170290565b84907f5173648d000000000000000000000000000000000000000000000000000000005f5260045260245260445ffd5b5050670de0b6b3a764000090049150565b90614868575080511561484057805190602001fd5b7f1425ea42000000000000000000000000000000000000000000000000000000005f5260045ffd5b815115806148ae575b614879575090565b6001600160a01b03907f9996b315000000000000000000000000000000000000000000000000000000005f521660045260245ffd5b50803b1561487156fea164736f6c634300081a000a",
    "linkReferences": {}
  },
  "methodIdentifiers": {
    "MAX_FEE()": "bc063e1a",
    "adjustRatePerSecond(uint256,uint128)": "a8a482a6",
    "admin()": "f851a440",
    "aggregateBalance(address)": "5f553152",
    "approve(address,uint256)": "095ea7b3",
    "balanceOf(address)": "70a08231",
    "batch(bytes[])": "1e897afb",
    "collectProtocolRevenue(address,address)": "ffe3d9f8",
    "coveredDebtOf(uint256)": "42e3e23d",
    "create(address,address,uint128,address,bool)": "597150fa",
    "createAndDeposit(address,address,uint128,address,bool,uint128)": "fbf2777e",
    "depletionTimeOf(uint256)": "d4b80884",
    "deposit(uint256,uint128,address,address)": "b61f7583",
    "depositAndPause(uint256,uint128)": "bcbd019e",
    "depositViaBroker(uint256,uint128,address,address,(address,uint256))": "c2f8e750",
    "getApproved(uint256)": "081812fc",
    "getBalance(uint256)": "1e010439",
    "getRatePerSecond(uint256)": "80448da3",
    "getRecipient(uint256)": "6d0cee75",
    "getSender(uint256)": "b971302a",
    "getSnapshotDebtScaled(uint256)": "450ac908",
    "getSnapshotTime(uint256)": "eb5710d8",
    "getStream(uint256)": "894e9a0d",
    "getStreamsBySender(address)": "7c7e10af",
    "getToken(uint256)": "e4b50cb8",
    "getTokenDecimals(uint256)": "a7de07cd",
    "isApprovedForAll(address,address)": "e985e9c5",
    "isPaused(uint256)": "bdf2a43c",
    "isStream(uint256)": "b8a3be66",
    "isTransferable(uint256)": "b2564569",
    "isVoided(uint256)": "569f4c59",
    "name()": "06fdde03",
    "nextStreamId()": "1e99d569",
    "nftDescriptor()": "44267570",
    "ongoingDebtScaledOf(uint256)": "7ddf9228",
    "ownerOf(uint256)": "6352211e",
    "pause(uint256)": "136439dd",
    "protocolFee(address)": "b62b31e4",
    "protocolRevenue(address)": "0c5fd195",
    "recover(address,address)": "648bf774",
    "refund(uint256,uint128)": "81632a86",
    "refundAndPause(uint256,uint128)": "379d871a",
    "refundableAmountOf(uint256)": "1400ecec",
    "restart(uint256,uint128)": "ebb6f79a",
    "restartAndDeposit(uint256,uint128,uint128)": "1f0cce58",
    "safeTransferFrom(address,address,uint256)": "42842e0e",
    "safeTransferFrom(address,address,uint256,bytes)": "b88d4fde",
    "senderToStreamId(address,uint256)": "24903ac4",
    "setApprovalForAll(address,bool)": "a22cb465",
    "setNFTDescriptor(address)": "7cad6cd1",
    "setProtocolFee(address,uint256)": "b5b3ca2c",
    "statusOf(uint256)": "ad35efd4",
    "supportsInterface(bytes4)": "01ffc9a7",
    "symbol()": "95d89b41",
    "tokenURI(uint256)": "c87b56dd",
    "totalDebtOf(uint256)": "08b87923",
    "transferAdmin(address)": "75829def",
    "transferFrom(address,address,uint256)": "23b872dd",
    "uncoveredDebtOf(uint256)": "bc7a2d6c",
    "void(uint256)": "5ea2145b",
    "withdraw(uint256,address,uint128)": "fdd46d60",
    "withdrawMax(uint256,address)": "ea5ead19",
    "withdrawableAmountOf(uint256)": "d975dfed"
  },
  "id": 75
}